:0400000083EF14F086
:1010000000010000000A00000064000000E8030086
:101010000010270000A086010040420F0080969833
:101020000000E1F50500CA9A3B00803FCDCC3DD7DA
:10103000233C12833AB7D138C62737388635C0D615
:1010400033CC2B32708930E7DB2EE53C1E42A20DFB
:1010500000803F00204100C842007A44401C4650B6
:10106000C34724744997184BBCBE4C6B6E4E031596
:101070005079AD60F349712566200000440E506E32
:10108000000E516EF2D2250E6318D8B407D040C0BE
:10109000D9FF41C0DAFF63C0DFFFE5D2000E536E17
:1010A000000E526E02D0538411D042C0F6FF43C0EE
:1010B000F7FF424A432A0800F5CF63F06350000A65
:1010C000D8B4DFD2660AD8B4EED7CFD2070E531405
:1010D000D8B4B9D2000E556E060E546E50C0D9FF6A
:1010E00051C0DAFFDECF60F0DECF61F0DDCF62F01D
:1010F000030E5026000E512262AE10D060C001F0E7
:1011000061C002F062C003F04BEC14F001C060F06B
:1011100002C061F003C062F0030E5212000E5B6E5B
:10112000000E5A6E605061106210D8B483D0820EE7
:10113000476EFF0E486E60C049F061C04AF062C061
:101140004BF063C04CF0100E05D0D8904C324B32AF
:101150004A324932E82EF9D7495047245A6E000ED8
:1011600048205B6E5A06D8A05B065AC00FF05BC0E1
:1011700010F0000E126E030E116E38EC14F00FC05A
:101180005AF010C05BF05AC007F05BC008F0000EC8
:101190000A6E0A0E096E44EC12F007C05AF008C03D
:1011A0005BF05BAE03D05A06D8A05B065A5000082D
:1011B00048EC0BF024C05CF025C05DF026C05EF06A
:1011C0005CC015F05DC016F05EC017F060C018F08E
:1011D00061C019F062C01AF066EC10F015C05CF046
:1011E00016C05DF017C05EF05CC001F05DC002F09B
:1011F0005EC003F0000E046E800E056E3F0E066E9C
:10120000FCEC11F0D8B004D05A06D8A05B0612D07E
:101210005CC001F05DC002F05EC003F0000E046E21
:10122000200E056E410E066EFCEC11F0D8A002D027
:101230005A4A5B2A55BE06D055501BE10D0E545C30
:10124000D8B017D060C02EF061C02FF062C030F06F
:10125000545040EC0DF024C031F025C032F026C0CF
:1012600033F063EC0EF02EC060F02FC061F030C0A0
:1012700062F05BBE06D05B501EE10A0E5A5CD8B02D
:101280001AD0605061106210D8B451D060C02BF0F9
:1012900061C02CF062C02DF0E0EC10F02B502C104F
:1012A0002D102E10D8B45BBE42D05B5004E1020E6C
:1012B0005A5CD8A03CD05CC001F05DC002F05EC0BA
:1012C00003F0700E046E890E056E400E066EFCEC87
:1012D00011F0D8B002D0F70E01D0F80E5A26FF0E4A
:1012E0005B225A5048EC0BF024C05CF025C05DF046
:1012F00026C05EF060C001F061C002F062C003F081
:101300005CC004F05DC005F05EC006F039EC0FF083
:1013100001C056F002C057F003C058F004C059F0A5
:10132000000E606E000E616E000E626E32D060C004
:101330002BF061C02CF062C02DF0E0EC10F02BC05F
:1013400056F02CC057F02DC058F02EC059F060C098
:101350003AF061C03BF062C03CF056C009F057C0A3
:101360000AF058C00BF059C00CF091EC13F009C012
:101370003DF00AC03EF00BC03FF0BFEC13F03AC0A6
:1013800060F03BC061F03CC062F0000E5B6E000E8E
:101390005A6E010E636E0A0E6318D8B418D06350EB
:1013A000040D010EF324F66E100EF420F76E090002
:1013B000F550565C0900F55057580900F55058583B
:1013C0000900F5505958D8A002D0632AE4D7030E7B
:1013D0005214476E000E5314486E47504810D8B44C
:1013E00051D040C0D9FF41C0DAFF2D0E49D0404A4C
:1013F000412A48D056C001F057C002F058C003F04F
:1014000059C004F06350040D010EF324F66E100E63
:10141000F420F76E0900F5CF05F00900F5CF06F0CE
:101420000900F5CF07F00A00F5CF08F086EC12F0BE
:1014300001C05CF002C05DF003C05EF004C05FF06C
:101440005CC001F05DC002F05EC003F05FC004F05C
:101450000A0E056E000E066E000E076E000E086E78
:10146000FFEC12F001C05CF002C05DF003C05EF062
:1014700004C05FF05C50300F40C0D9FF41C0DAFFBC
:10148000DF6EB5D763066328D8B40CD0B3D740C09D
:10149000D9FF41C0DAFF300EDF6E404A412A5A06BA
:1014A000D8A05B065BBE05D05B50F1E15A04D8B012
:1014B000EED755BE09D0555004E1090E545CD8A0B2
:1014C00003D0080E636E02D054C063F06350545EC4
:1014D000000E63BEFF0E555A6350D8B408D040C00A
:1014E000D9FF41C0DAFF2E0EDF6E404A412A635019
:1014F00048EC0BF024C04DF025C04EF026C04FF054
:1015000060C018F061C019F062C01AF04DC015F04B
:101510004EC016F04FC017F066EC10F015C02BF05F
:1015200016C02CF017C02DF0E0EC10F02BC056F0D8
:101530002CC057F02DC058F02EC059F06FD056C0B7
:1015400001F057C002F058C003F059C004F06350D6
:10155000040D010EF324F66E100EF420F76E090050
:10156000F5CF05F00900F5CF06F00900F5CF07F03B
:101570000A00F5CF08F086EC12F001C05CF002C062
:101580005DF003C05EF004C05FF05CC001F05DC0C0
:1015900002F05EC003F05FC004F00A0E056E000E9C
:1015A000066E000E076E000E086EFFEC12F001C012
:1015B0005CF002C05DF003C05EF004C05FF05C5000
:1015C000300F40C0D9FF41C0DAFFDF6E404A412AE8
:1015D00056C001F057C002F058C003F059C004F0E3
:1015E0006350040D010EF324F66E100EF420F76E16
:1015F0000900F5CF05F00900F5CF06F00900F5CF99
:1016000007F00A00F5CF08F0FFEC12F001C056F029
:1016100002C057F003C058F004C059F063066328B5
:10162000D8B40CD08CD740C0D9FF41C0DAFF300EFF
:10163000DF6E404A412A5406D8A055065450551032
:10164000D8B413D0F0D7030E5214476E000E5314C3
:10165000486E47504810D8B408D040C0D9FF41C0A8
:10166000DAFF2D0EDF6E404A412A42C0F6FF43C02A
:10167000F7FF424A432A0800F5CF63F06350D8A42D
:1016800002D540C0D9FF41C0DAFF000EDF6E120064
:101690002A6E2AAEFBD02A6C2A50800A120FD8A0DC
:1016A00091D0000E126E030E116E000E0A6E0A0E1D
:1016B000096E000E046E640E036E2A50016E026AFB
:1016C00001BE0206C7EC12F001C007F002C008F02C
:1016D00044EC12F0090E07240F6E000E0820106E65
:1016E00038EC14F0290E0F24F66E100E1020F76E51
:1016F0000900F5CF18F00900F5CF19F00A00F5CF71
:101700001AF0000E0A6E640E096E2A50076E086AFF
:1017100007BE080644EC12F0120E07240F6E000EEE
:101720000820106E000E126E030E116E38EC14F0CD
:10173000290E0F24F66E100E1020F76E0900F5CF5B
:1017400015F00900F5CF16F00A00F5CF17F066EC9A
:1017500010F015C027F016C028F017C029F027C0D8
:1017600015F028C016F029C017F0000E126E030EF7
:10177000116E000E046E0A0E036E2A50016E026A8C
:1017800001BE0206C7EC12F001C00FF002C010F05B
:1017900038EC14F0290E0F24F66E100E1020F76EA0
:1017A0000900F5CF18F00900F5CF19F00A00F5CFC0
:1017B0001AF066EC10F015C024F016C025F017C022
:1017C00026F012002A50800A750FD8A04DD0000EC6
:1017D0000A6E0A0E096E2A50076E086A07BE0806CE
:1017E00044EC12F0090E07240F6E000E0820106E54
:1017F000000E126E030E116E38EC14F0290E0F2439
:10180000F66E100E1020F76E0900F5CF15F00900E6
:10181000F5CF16F00A00F5CF17F0000E126E030E8A
:10182000116E000E046E0A0E036E2A50016E026ADB
:1018300001BE0206C7EC12F001C00FF002C010F0AA
:1018400038EC14F0290E0F24F66E100E1020F76EEF
:101850000900F5CF18F00900F5CF19F00A00F5CF0F
:101860001AF066EC10F0A7D72A50030D290EF324C6
:10187000F66E100EF420F76E0900F5CF24F0090083
:10188000F5CF25F00A00F5CF26F012002A50800A85
:10189000120FD8A091D0000E126E030E116E000E22
:1018A0000A6E0A0E096E000E046E640E036E2A5054
:1018B000016E026A01BE0206C7EC12F001C007F019
:1018C00002C008F044EC12F0090E07240F6E000E5F
:1018D0000820106E38EC14F0500E0F24F66E100E27
:1018E0001020F76E0900F5CF18F00900F5CF19F0B8
:1018F0000A00F5CF1AF0000E0A6E640E096E2A5027
:10190000076E086A07BE080644EC12F0120E0724A0
:101910000F6E000E0820106E000E126E030E116E78
:1019200038EC14F0500E0F24F66E100E1020F76EE7
:101930000900F5CF15F00900F5CF16F00A00F5CF34
:1019400017F066EC10F015C027F016C028F017C08D
:1019500029F027C015F028C016F029C017F0000E96
:10196000126E030E116E000E046E0A0E036E2A50E4
:10197000016E026A01BE0206C7EC12F001C00FF050
:1019800002C010F038EC14F0500E0F24F66E100E5A
:101990001020F76E0900F5CF18F00900F5CF19F007
:1019A0000A00F5CF1AF066EC10F015C024F016C04E
:1019B00025F017C026F012002A50800A750FD8A013
:1019C0004DD0000E0A6E0A0E096E2A50076E086A84
:1019D00007BE080644EC12F0090E07240F6E000E35
:1019E0000820106E000E126E030E116E38EC14F00B
:1019F000500E0F24F66E100E1020F76E0900F5CF72
:101A000015F00900F5CF16F00A00F5CF17F0000E1B
:101A1000126E030E116E000E046E0A0E036E2A5033
:101A2000016E026A01BE0206C7EC12F001C00FF09F
:101A300002C010F038EC14F0500E0F24F66E100EA9
:101A40001020F76E0900F5CF18F00900F5CF19F056
:101A50000A00F5CF1AF066EC10F0A7D72A50030D54
:101A6000500EF324F66E100EF420F76E0900F5CF39
:101A700024F00900F5CF25F00A00F5CF26F012007A
:101A80002D6E6D0E2D649FD0000E126E030E116E22
:101A9000000E0A6E0A0E096E000E046E640E036ECE
:101AA0002DC001F0026AC7EC12F001C007F002C0BD
:101AB00008F044EC12F0090E07240F6E000E082007
:101AC000106E38EC14F0290E0F24F66E100E102054
:101AD000F76E0900F5CF18F00900F5CF19F00A00EC
:101AE000F5CF1AF0000E0A6E640E096E2DC007F0D5
:101AF000086A44EC12F0120E07240F6E000E082044
:101B0000106E000E126E030E116E38EC14F0290EDA
:101B10000F24F66E100E1020F76E0900F5CF15F0A9
:101B20000900F5CF16F00A00F5CF17F066EC10F0BB
:101B300015C02AF016C02BF017C02CF0000E126E44
:101B4000030E116E000E046E0A0E036E2DC001F01E
:101B5000026AC7EC12F001C00FF002C010F038ECBE
:101B600014F0290E0F24F66E100E1020F76E0900E7
:101B7000F5CF18F00900F5CF19F00A00F5CF1AF0EB
:101B80002AC015F02BC016F02CC017F066EC10F030
:101B900015C027F016C028F017C029F027C015F08F
:101BA00028C016F029C017F0000E186E000E196E2E
:101BB0003F0E1A6E66EC10F015C024F016C025F02A
:101BC00017C026F012000A0E2D645DD0000E126EB2
:101BD000030E116E000E046E0A0E036E2DC001F08E
:101BE000026AC7EC12F001C00FF002C010F038EC2E
:101BF00014F0290E0F24F66E100E1020F76E090057
:101C0000F5CF18F00900F5CF19F00A00F5CF1AF05A
:101C1000000E0A6E0A0E096E2DC007F0086A44EC29
:101C200012F0090E07240F6E000E0820106E000E31
:101C3000126E030E116E38EC14F0290E0F24F66E9E
:101C4000100E1020F76E0900F5CF15F00900F5CF42
:101C500016F00A00F5CF17F066EC10F015C02AF068
:101C600016C02BF017C02CF02AC015F02BC016F0B0
:101C70002CC017F0000E186E000E196E3F0E1A6E73
:101C800066EC10F099D72D50030D290EF324F66E53
:101C9000100EF420F76E0900F5CF15F00900F5CF0E
:101CA00016F00A00F5CF17F0000E186E000E196E30
:101CB0003F0E1A6E66EC10F015C024F016C025F029
:101CC00017C026F0120030C034F0356A366A2F345F
:101CD000343601E335803450396E33C034F0356A20
:101CE000366A3234343601E335803450386E395038
:101CF000D8B40BD03850395CD8B00ED03950000869
:101D00003824346E180E346407D031C02EF032C03F
:101D10002FF033C030F012003850D8B40BD0395007
:101D2000385CD8B00ED0385000083924346E180E04
:101D3000346407D02EC02EF02FC02FF030C030F00A
:101D40001200060E376E30BE378E33BE378C2F8EA4
:101D5000FF0E2E16FF0E2F16000E3016328EFF0EBF
:101D60003116FF0E3216000E33163850395CD8B0DB
:101D70001BD0D890313632363336380639503818C1
:101D8000D8B40DD0370637C034F0070E3416D8B4A7
:101D900006D0EFD7D89030322F322E32392A385031
:101DA0003918D8B41FD0F6D73950385CD8B01AD00B
:101DB000D8902E362F363036390639503818D8B4E8
:101DC0000DD0370637C034F0070E3416D8B406D01D
:101DD000EFD7D890333232323132382A385039186E
:101DE000D8A4F7D737AE0CD0FF0E2E1AFF0E2F1A3D
:101DF000FF0E301A010E2E26000E2F22000E30226A
:101E000037AC0CD0FF0E311AFF0E321AFF0E331A08
:101E1000010E3126000E3222000E3322000E376EE4
:101E20002E5031262F5032223050332233AE0ED076
:101E3000FF0E311AFF0E321AFF0E331A010E312631
:101E4000000E3222000E3322010E376E31C001F037
:101E500032C002F033C003F039C004F037C005F0DF
:101E60005AEC11F001C02EF002C02FF003C030F088
:101E7000120003C007F0086A096A0234073601E35A
:101E8000088007500F6E0F50D8A409D0000E016EC5
:101E9000000E026E000E036E000E046E120006C0ED
:101EA00007F0086A096A0534073601E3088007501D
:101EB0000E6E0E50D8A409D0000E016E000E026EF8
:101EC000000E036E000E046E1200028EFF0E01164D
:101ED000FF0E0216000E0316058EFF0E0416FF0EEF
:101EE0000516000E0616000E0A6E000E0B6E000E92
:101EF0000C6E000E0D6E7F0E0F5E0E50980F0F5E73
:101F0000180E0E6ED8900A360B360C360D3604506D
:101F1000015C0550025806500358D8A007D0045061
:101F2000015E0550025A0650035A0A80D8900136C5
:101F3000023603360E2EE6D70FAE16D00F50800AAB
:101F4000970FD8B009D0000E016E000E026E000E81
:101F5000036E000E046E1200D8900D320C320B325C
:101F60000A320F3EF9D715D0170E0F640FD0000EAE
:101F7000016E000E026E000E036E000E046E120063
:101F8000D8900A360B360C360D360F060F50D8A4F3
:101F9000F7D70AC001F00BC002F00CC003F00DC06F
:101FA00004F01200033404340C6E0C50D8A409D091
:101FB000000E016E000E026E000E036E000E046E27
:101FC0001200063407340B6E0B50D8A409D0000E53
:101FD000016E000E026E000E036E000E046E120003
:101FE000038EFF0E0116FF0E0216FF0E0316000EE3
:101FF0000416068EFF0E0416FF0E0516FF0E0616BB
:10200000000E0716000E076E000E086E000E096E19
:10201000000E0A6E7F0E0C5E0B50A00F0C5E200EA1
:102020000B6ED8900736083609360A360450015C24
:10203000055002580650035807500458D8A009D03C
:102040000450015E0550025A0650035A0750045AC4
:102050000780D89001360236033604360B2EE1D7BE
:102060000CAE16D00C50800A9F0FD8B009D0000ECD
:10207000016E000E026E000E036E000E046E120062
:10208000D8900A320932083207320C3EF9D715D0FF
:102090001F0E0C640FD0000E016E000E026E000EBB
:1020A000036E000E046E1200D8900736083609360B
:1020B0000A360C060C50D8A4F7D707C001F008C0A8
:1020C00002F009C003F00AC004F0120017C01BF0B0
:1020D0001C6A1D6A16341B3601E31C801B501E6EE1
:1020E0001E50D8A407D0000E156E000E166E000EFE
:1020F000176E12001AC01BF01C6A1D6A19341B36B9
:1021000001E31C801B50236E2350D8A407D0000E7F
:10211000156E000E166E000E176E120023507B0F08
:102120001E2617C023F01A50231A800E2316168E6F
:10213000198EFF0E1816FF0E1916000E1A16000E35
:102140001F6E000E206E000E216E070E226E15A06F
:1021500006D018501F26195020221A502122D8903C
:10216000173216321532D890183619361A36222EF2
:10217000EED7090E226E15A006D018501F26195052
:1021800020221A502122D890173216321532D890B8
:10219000213220321F32222EEED71FC001F020C084
:1021A00002F021C003F01EC004F023C005F05AEC79
:1021B00011F001C015F002C016F003C017F01200B4
:1021C0002DC02FF0306A316A2C342F3601E3308075
:1021D0002F50396E3950D8A409D0000E2B6E000E46
:1021E0002C6E000E2D6E000E2E6E1200170E2F6E2E
:1021F0002BC030F02CC031F02DC032F02F28336EC0
:1022000004D0D890323231323032332EFAD73050B7
:10221000346E2C8EFF0E2B16FF0E2C16000E2D1674
:102220002B50356E2C50366E2D50376E386A8E0E10
:10223000395E39AE16D03950800A8F0FD8B009D028
:10224000000E2B6E000E2C6E000E2D6E000E2E6EEC
:102250001200D8903832373236323532393EF9D71B
:1022600015D0170E39640FD0000E2B6E000E2C6E99
:10227000000E2D6E000E2E6E1200D89035363636BA
:102280003736383639063950D8A4F7D73450D8B451
:1022900008D0381E371E361E356C000E3622372207
:1022A000382235C02BF036C02CF037C02DF038C0A6
:1022B0002EF012000450D8B405D0015002100310C3
:1022C000D8A40CD0000E016E000E026E000E036E3C
:1022D0001200042AD890033202320132000E011497
:1022E000066E000E0214076EFE0E0314086E0650F2
:1022F00007100810D8B40CD0ECD7042A010E012620
:10230000000E0222000E0322D89003320232013264
:10231000000E0114066E000E0214076EFF0E031469
:10232000086E065007100810D8B406D0E6D7040689
:10233000D89001360236033602BE03D0020E046086
:10234000F6D704A0029ED890043204500312055020
:10235000D8A4038E01C001F002C002F003C003F054
:1023600012000C0E016E000E026EA90E62EC13F04C
:10237000000E026E190E016E3C0E32EC13F08F0E41
:102380005DEC14F0050E68EC14F08FEC14F089ECA1
:1023900014F00009D8A4FBD77CEC14F001C009F0BC
:1023A00002C00AF01CEC14F009C064F00AC065F029
:1023B0000BC066F0640E406E000E416E770E426EEA
:1023C000100E436E64C044F065C045F066C046F030
:1023D0003EEC08F0640E076E000E086E640E016E8F
:1023E000000E026EFFEC13F00150096EDFEC13F0EB
:1023F000320E68EC14F0C3D703AE16D001C007F05C
:1024000002C008F003C009F0071E081E091E072AB3
:10241000000E08220922000E0724016E000E08207B
:10242000026E800E0920036E06AE16D004C007F0BF
:1024300005C008F006C009F0071E081E091E072A7D
:10244000000E08220922000E0724046E000E082048
:10245000056E800E0920066E000E011A000E021A8B
:10246000800E031A000E041A000E051A800E061ABA
:102470000450015C0550025806500358D8B002D0F1
:10248000D8901200D8801200000E0C6E0AAE06D052
:10249000096C0A1ED8B00A2A010E0C6E08AE06D0CE
:1024A000076C081ED8B0082A010E0C1A000E0E6E1A
:1024B000000E0D6E09500A10D8B41CD0010E0B6E20
:1024C00004D0D89009360A360B2A0AAEFAD7D8902B
:1024D0000D360E360950075C0A500858D8A005D0B2
:1024E0000950075E0A50085A0D80D8900A32093206
:1024F0000B2EEDD70C50D8B404D00D6C0E1ED8B0F6
:102500000E2A0DC007F00EC008F01200000E096E72
:10251000000E0A6E000E0B6E000E0C6E05500610BB
:1025200007100810D8B42AD0010E0D6E06D0D8902E
:1025300005360636073608360D2A08AEF8D7D89085
:1025400009360A360B360C360550015C0650025827
:102550000750035808500458D8A009D00550015E10
:102560000650025A0750035A0850045A0980D8905E
:1025700008320732063205320D2EE1D709C001F0CC
:102580000AC002F00BC003F00CC004F01200000EF1
:10259000066E02AE06D0016C021ED8B0022A010EF1
:1025A000066E04AE04D0036C041ED8B0042A035097
:1025B0000410D8B418D0010E056E04D0D89003369C
:1025C0000436052A04AEFAD70350015C04500258C1
:1025D000D8A004D00350015E0450025AD8900432AF
:1025E0000332052EF1D70650D8B404D0016C021E78
:1025F000D8B0022A01C001F002C002F0120005505A
:10260000061007100810D8B424D0010E096E06D0A9
:10261000D8900536063607360836092A08AEF8D7A8
:102620000550015C065002580750035808500458E2
:10263000D8A008D00550015E0650025A0750035A30
:102640000850045AD8900832073206320532092E53
:10265000E7D701C001F002C002F003C003F004C0DC
:1026600004F01200036E000EAC6E000EAB6E03B0F1
:10267000AC8803A202D0AC8CAB8C03B4AC8E03A6A6
:1026800002D0AB8801D0AB8A03B8AC849E9803BA61
:10269000AB8603AC02D09D8A01D09D9A9E9A03AE70
:1026A00002D09D8801D09D9801C0AFFF0250B06E4E
:1026B000AC8AAB8E949C948EACA81200ACBE120077
:1026C000948C1200056E000EC26E000EC06ED89083
:1026D00001303C0BC26E01C003F0033AF00E03164A
:1026E000300E031602500F0B0310C16E05C003F02D
:1026F000D8900336D8900336380E031605C004F080
:10270000043A0F0E0416070E04160550800B041031
:102710000310C06E01AE03D09E9C9D8CF28CC280D3
:1027200012008E0E116E06D0D8900C320B320A3287
:102730000932112A000E09140D6E000E0A140E6ED5
:10274000000E0B140F6EFF0E0C14106E0D500E10B9
:102750000F101010D8A4E8D709C001F00AC002F089
:102760000BC003F011C004F0000E056E5AEC11F01E
:1027700001C009F002C00AF003C00BF012003D5086
:102780003E103F10D8B406D0000E3D1A000E3E1A7F
:10279000800E3F1A3AC02EF03BC02FF03CC030F004
:1027A0003DC031F03EC032F03FC033F063EC0EF07C
:1027B0002EC03AF02FC03BF030C03CF01200000EAB
:1027C0000E6E000E0D6E0DD0ACA2FED70D5007247C
:1027D000D96E0E500820DA6EDF5073EC14F00D4AFB
:1027E0000E2A09500A6E0B6A0A500D5C0E50800AC0
:1027F0000C6E0B50800A0C58D8B01200E5D701C0FF
:1028000005F002C006F002D0054A062A05C0D9FF2D
:1028100006C0DAFFDF50D8A4F7D701C003F002C02A
:1028200004F0031E041E034A042A05500324016E0B
:1028300006500420026E1200000E0C6E0AAE06D086
:10284000096C0A1ED8B00A2A010E0C6E09C001F0EC
:102850000AC002F0036A8E0E046E0CC005F05AEC3A
:1028600011F001C009F002C00AF003C00BF0120021
:102870000F501102F3CF13F0F4CF14F00F501202E7
:10288000F350142610501102F350142613C00FF009
:1028900014C010F01200015002100310D8B406D07A
:1028A000000E011A000E021A800E031A01C001F078
:1028B00002C002F003C003F01200026EC2CF01F0AA
:1028C000C30E0116D89002303C0B0110C26E1200EC
:1028D000026E0D0E016EFC0EE82EFED7012EFCD707
:1028E000022EF7D71200016EACAC03D0AC9067B2E9
:1028F000AC8001C0ADFF1200C450036EC350016E26
:1029000003C002F01200676A000EF86E0001B1EF1A
:1029100011F0C2A202D0010E1200000E1200C282FB
:022920001200A3
:020000040020DA
:08000000FFFFFFFFFFFFFFFF00
:020000040030CA
:0E000000FF021F1EFF8381FF0FC00FE00F40A5
:00000001FF
