:040000006BEF6DF045
:10D91C00C2821200C2A202D0010E1200000E12002E
:10D92C00C450036EC350016E03C002F01200016EAE
:10D93C00030EE82EFED700F0012EFAD71200C9CF45
:10D94C0001F09E96000EC96E9EA6FED7C95012001D
:10D95C00016EACAC03D0AC907DB2AC8001C0ADFF1D
:10D96C00120001C003F002C004F004C0D7FF03C0D2
:10D97C00D6FF1200026EC2CF01F0C30E0116D89072
:10D98C0002303C0B0110C26E1200026EC9CF01F0C6
:10D99C009E96C69E02C0C9FFC6BE12009EB612005D
:10D9AC00FDD7036E000E026E3A0E036005D02F0EEB
:10D9BC00036402D0010E026E02C001F001301200AD
:10D9CC00016E01507F0BD56E000ED76E000ED66E19
:10D9DC00F29401AE02D0F28A01D0F29AD58E1200E6
:10D9EC0009C001F00AC002F0036A8E0E046E000E2C
:10D9FC00056EF0EC70F001C009F002C00AF003C033
:10DA0C000BF01200015002100310D8B406D0000E17
:10DA1C00011A000E021A800E031A01C001F002C096
:10DA2C0002F003C003F012000F501102F3CF13F0F9
:10DA3C00F4CF14F00F501202F350142610501102B0
:10DA4C00F350142613C00FF014C010F01200046E23
:10DA5C00000EF2B8010E056EF29882900450CBECD9
:10DA6C006CF00350CBEC6CF0828005B002D0F298D5
:10DA7C0001D0F2881200036E000EF2B8010E056E92
:10DA8C00F29882900350CBEC6CF0A5EC6CF0046E29
:10DA9C00828005B002D0F29801D0F28804501200B6
:10DAAC00096E020E046E000E036E09500209056E1B
:10DABC0022EC6EF0040E036E6D0E2DEC6DF0000E6C
:10DACC00036E6D0E2DEC6DF0120001EE00F0800E69
:10DADC00EE6AE806FDE100EE80F0260EEE6AE8063E
:10DAEC00FDE100EE78F0080EEE6AE806FDE1000EAE
:10DAFC00F86E0001D9EF76F001C005F002C006F017
:10DB0C0002D0054A062A05C0D9FF06C0DAFFDF504D
:10DB1C00D8A4F7D701C003F002C004F0031E041E02
:10DB2C00034A042A05500324016E06500420026E99
:10DB3C001200000E0E6E000E0D6E0DD0ACA2FED7B4
:10DB4C000D500724D96E0E500820DA6EDF50AEEC63
:10DB5C006CF00D4A0E2A09500A6E0B6A0A500D5CC5
:10DB6C000E50800A0C6E0B50800A0C58D8B0120064
:10DB7C00E5D7425043104410D8B406D0000E421AD8
:10DB8C00000E431A800E441A3FC033F040C034F0EC
:10DB9C0041C035F042C036F043C037F044C038F0D5
:10DBAC00E0EC74F033C03FF034C040F035C041F0CD
:10DBBC001200000E076E000E066E16D00650010DF8
:10DBCC00F3500124D96EF4500220DA6EDF5007189E
:10DBDC00046E056A010E0424F66EFD0E0520F76E28
:10DBEC000800F5CF07F0062A0350065CD8A0E6D74C
:10DBFC0007501200040E806EF80E926E9368F19E20
:10DC0C001C0EC26E82809490828294908284949432
:10DC1C00F292F288D08EF28ED38E000E026E190E16
:10DC2C00016E3C0EFEEC6EF0000E016E000E026EEC
:10DC3C00000E74EC6EF01200000EF2B8010E086EBD
:10DC4C00F298829003C006F004C007F0D890073217
:10DC5C000632D89007320632D89007320632065078
:10DC6C007F0B8009CBEC6CF00338E846E00BE00B43
:10DC7C001009CBEC6CF00550CBEC6CF0828008B04A
:10DC8C0002D0F29801D0F2881200000EF2B8010E08
:10DC9C00086EF298829003C005F004C006F0D8908C
:10DCAC0006320532D89006320532D890063205324B
:10DCBC0005507F0B8009CBEC6CF00338E846E00B89
:10DCCC00E00BCBEC6CF0A5EC6CF0076E828008B02E
:10DCDC0002D0F29801D0F28807501200036E3F0E6A
:10DCEC00C716000EC66E0350C6120250C71205D0DE
:10DCFC00C78C15D0C78CC68812D00150000AD8B476
:10DD0C00F7D7020AD8B4F6D7010AD8B4F4D707D09B
:10DD1C009486928A0CD094860AD0949608D003509C
:10DD2C00040AD8B4F5D7010AD8B4F5D7F6D7948835
:10DD3C00949AC68A12008E0E116E06D0D8900C32B0
:10DD4C000B320A320932112A000E09140D6E000E24
:10DD5C000A140E6E000E0B140F6EFF0E0C14106EC8
:10DD6C000D500E100F101010D8A4E8D709C001F0F8
:10DD7C000AC002F00BC003F011C004F0000E056ED7
:10DD8C00F0EC70F001C009F002C00AF003C00BF017
:10DD9C001200056E000EC26E000EC06ED8900130DF
:10DDAC003C0BC26E01C003F0033AF00E0316300EAA
:10DDBC00031602500F0B0310C16E05C003F0D89070
:10DDCC000336D8900336380E031605C004F0043A17
:10DDDC000F0E0416070E04160550800B04100310CA
:10DDEC00C06E01AE03D09E9C9D8CF28CC280120042
:10DDFC00036E000EAC6E000EAB6E03B0AC8803A2CB
:10DE0C0002D0AC8CAB8C03B4AC8E03A602D0AB8826
:10DE1C0001D0AB8A03B8AC849E9803BAAB8603AC32
:10DE2C0002D09D8A01D09D9A9E9A03AE02D09D8805
:10DE3C0001D09D9801C0AFFF0250B06EAC8AAB8E82
:10DE4C00949C948EACA81200ACBE1200948C120060
:10DE5C001250131014101510D8B424D0010E166ED5
:10DE6C0006D0D8901236133614361536162A15AE3F
:10DE7C00F8D712500E5C13500F5814501058155000
:10DE8C001158D8A008D012500E5E13500F5A1450CF
:10DE9C00105A1550115AD8901532143213321232BE
:10DEAC00162EE7D70EC00EF00FC00FF010C010F0FA
:10DEBC0011C011F01200000E066E02AE06D0016CFD
:10DECC00021ED8B0022A010E066E04AE04D0036CFA
:10DEDC00041ED8B0042A03500410D8B418D0010E74
:10DEEC00056E04D0D89003360436052A04AEFAD752
:10DEFC000350015C04500258D8A004D00350015EBA
:10DF0C000450025AD89004320332052EF1D7065031
:10DF1C00D8B404D0016C021ED8B0022A01C001F0A2
:10DF2C0002C002F01200620E41EC6DF00D6E0DA6F7
:10DF3C0035D0030E046E000E036E4BEC6EF0F50F35
:10DF4C000E6E000E0F6E12D00F50010DF3500924FF
:10DF5C00D96EF4500A20DA6E0A0E0F24036E046A8E
:10DF6C00030E04224BEC6EF0DF6E0F2A0E500F5C8A
:10DF7C00D8A0EAD70D0E0E24036E046A030E0422F9
:10DF8C004BEC6EF00BC0D9FF0CC0DAFFDF6E010E4C
:10DF9C00036E1B0E2DEC6DF00E501200000E1200D5
:10DFAC00000E096E000E0A6E000E0B6E000E0C6E4B
:10DFBC000550061007100810D8B42AD0010E0D6EAB
:10DFCC0006D0D89005360636073608360D2A08AE28
:10DFDC00F8D7D89009360A360B360C360550015C4A
:10DFEC00065002580750035808500458D8A009D0BE
:10DFFC000550015E0650025A0750035A0850045A45
:10E00C000980D89008320732063205320D2EE1D73E
:10E01C0009C001F00AC002F00BC003F00CC004F000
:10E02C001200000E0C6E0AAE06D0096C0A1ED8B097
:10E03C000A2A010E0C6E08AE06D0076C081ED8B06A
:10E04C00082A010E0C1A000E0E6E000E0D6E0950F1
:10E05C000A10D8B41CD0010E0B6E04D0D89009361F
:10E06C000A360B2A0AAEFAD7D8900D360E3609505E
:10E07C00075C0A500858D8A005D00950075E0A5012
:10E08C00085A0D80D8900A3209320B2EEDD70C505D
:10E09C00D8B404D00D6C0E1ED8B00E2A0DC007F0EB
:10E0AC000EC008F0120003AE16D001C007F002C07B
:10E0BC0008F003C009F0071E081E091E072A000EEF
:10E0CC0008220922000E0724016E000E0820026EA1
:10E0DC00800E0920036E06AE16D004C007F005C0F2
:10E0EC0008F006C009F0071E081E091E072A000EBC
:10E0FC0008220922000E0724046E000E0820056E6B
:10E10C00800E0920066E000E011A000E021A800EF7
:10E11C00031A000E041A000E051A800E061A04507B
:10E12C00015C0550025806500358D8B002D0D89064
:10E13C001200D88012000C0E016E000E026EA90E99
:10E14C00CFEC6EF0050E9DEC6CF0140E016E000E13
:10E15C00026EA90ECFEC6EF0050E9DEC6CF01C0E51
:10E16C00016E000E026EA90ECFEC6EF0050E9DEC4A
:10E17C006CF08F0EC0EC6CF08EEC6CF090EC6CF0E4
:10E18C000009D8A4FBD796EC6CF001C086F002C055
:10E19C0087F0970EC0EC6CF08EEC6CF090EC6CF0A1
:10E1AC000009D8A4FBD796EC6CF001C0A4F002C017
:10E1BC00A5F09F0EC0EC6CF08EEC6CF090EC6CF05B
:10E1CC000009D8A4FBD796EC6CF001C088F002C013
:10E1DC0089F012000450D8B405D00150021003107D
:10E1EC00D8A40CD0000E016E000E026E000E036E51
:10E1FC001200042AD890033202320132000E0114AC
:10E20C00066E000E0214076EFE0E0314086E065006
:10E21C0007100810D8B40CD0ECD7042A010E012634
:10E22C00000E0222000E0322D89003320232013279
:10E23C00000E0114066E000E0214076EFF0E03147E
:10E24C00086E065007100810D8B406D0E6D704069E
:10E25C00D89001360236033602BE03D0020E04609B
:10E26C00F6D704A0029ED890043204500312055035
:10E27C00D8A4038E01C001F002C002F003C003F069
:10E28C00120026C02AF02B6A2C6A25342A3601E3A8
:10E29C002B802A50316E3150D8A407D0000E246E3A
:10E2AC00000E256E000E266E120029C02AF02B6A75
:10E2BC002C6A28342A3601E32B802A50326E3250D5
:10E2CC00D8A407D0000E246E000E256E000E266E0C
:10E2DC001200000E2E6E000E2F6E000E306E32509D
:10E2EC00890F315E26C032F02950321A800E321658
:10E2FC00258EFF0E2416FF0E2516000E2616288ED0
:10E30C00FF0E2716FF0E2816000E2916180E2D6E5E
:10E31C00D8902E362F3630362750245C285025586E
:10E32C0029502658D8A007D02750245E2850255AAB
:10E33C002950265A2E80D8902436253626362D2E56
:10E34C00E7D72EC001F02FC002F030C003F031C06F
:10E35C0004F032C005F0F0EC70F001C024F002C003
:10E36C0025F003C026F01200000E046E000E036EA2
:10E37C000B50090F056E22EC6EF0000E046E010EB0
:10E38C00036E0B50090F056E22EC6EF0000E046E3E
:10E39C00020E036E010E056E22EC6EF0000E046E82
:10E3AC00030E036E880E056E22EC6EF0000E046EEA
:10E3BC00040E036E010E056E22EC6EF0000E046E60
:10E3CC00050E036EFF0E056E22EC6EF0000E046E51
:10E3DC00060E036EFF0E056E22EC6EF0000E046E40
:10E3EC00070E036EFF0E056E22EC6EF0000E046E2F
:10E3FC00080E036EFF0E056E22EC6EF0000E046E1E
:10E40C00090E036EFF0E056E22EC6EF0000E046E0C
:10E41C000A0E036EFF0E056E22EC6EF0000E0C6EF3
:10E42C0013D00B0E0C24036E046A000E04220C5045
:10E43C00010DF3500924D96EF4500A20DA6EDF5026
:10E44C00056E22EC6EF00C2A0B500C5CD8A0E9D7B0
:10E45C00010E036E370E2DEC6DF012002DC02FF057
:10E46C00306A316A2C342F3601E330802F50396EEC
:10E47C003950D8A409D0000E2B6E000E2C6E000E55
:10E48C002D6E000E2E6E1200170E2F6E2BC030F05C
:10E49C002CC031F02DC032F02F28336E04D0D89020
:10E4AC00323231323032332EFAD73050346E2C8E29
:10E4BC00FF0E2B16FF0E2C16000E2D162B50356E44
:10E4CC002C50366E2D50376E386A8E0E395E39AE42
:10E4DC0016D03950800A8F0FD8B009D0000E2B6E91
:10E4EC00000E2C6E000E2D6E000E2E6E1200D890AB
:10E4FC003832373236323532393EF9D715D0170E1D
:10E50C0039640FD0000E2B6E000E2C6E000E2D6E8B
:10E51C00000E2E6E1200D890353636363736383619
:10E52C0039063950D8A4F7D73450D8B408D0381E8F
:10E53C00371E361E356C000E36223722382235C077
:10E54C002BF036C02CF037C02DF038C02EF0120056
:10E55C0017C01BF01C6A1D6A16341B3601E31C80A5
:10E56C001B501E6E1E50D8A407D0000E156E000E48
:10E57C00166E000E176E12001AC01BF01C6A1D6A74
:10E58C0019341B3601E31C801B50236E2350D8A476
:10E59C0007D0000E156E000E166E000E176E1200D0
:10E5AC0023507B0F1E2617C023F01A50231A800EFF
:10E5BC002316168E198EFF0E1816FF0E1916000E46
:10E5CC001A16000E1F6E000E206E000E216E070E26
:10E5DC00226E15A006D018501F26195020221A5052
:10E5EC002122D890173216321532D8901836193697
:10E5FC001A36222EEED7090E226E15A006D0185010
:10E60C001F26195020221A502122D8901732163268
:10E61C001532D890213220321F32222EEED71FC055
:10E62C0001F020C002F021C003F01EC004F023C092
:10E63C0005F0F0EC70F001C015F002C016F003C04C
:10E64C0017F012008294000E0A6E000E096E2C0E4A
:10E65C00095C010E0A58D8B003D0094A0A2AF7D728
:10E66C008284000E0A6E000E096E2C0E095C010EDF
:10E67C000A58D8B003D0094A0A2AF7D7040E036EF9
:10E68C006D0E2DEC6DF0000E036E6D0E2DEC6DF01D
:10E69C00050E036E1B0E2DEC6DF0FF0E036E070EB8
:10E6AC002DEC6DF0FF0E036E090E2DEC6DF0FF0ED0
:10E6BC00036E030E2DEC6DF0FF0E036E050E2DECAC
:10E6CC006DF0020E046E020E036E800E056E22ECCF
:10E6DC006EF0020E046E030E036E000E056E22EC3D
:10E6EC006EF0020E046E060E036E800E056E22ECAA
:10E6FC006EF0020E046E080E036E100E056E22EC08
:10E70C006EF0380E036E750E2DEC6DF0400E036E30
:10E71C007D0E2DEC6DF0000E036E7F0E2DEC6DF06A
:10E72C00020E046E000E036E000E056E22EC6EF0EF
:10E73C00230E036E010E2DEC6DF0040E036E6D0EA8
:10E74C002DEC6DF0000E036E6D0E2DEC6DF0F70ED2
:10E75C00036E650E2DEC6DF01200033404340C6E58
:10E76C000C50D8A409D0000E016E000E026E000EE3
:10E77C00036E000E046E1200063407340B6E0B5041
:10E78C00D8A409D0000E016E000E026E000E036EAE
:10E79C00000E046E1200038EFF0E0116FF0E021601
:10E7AC00FF0E0316000E0416068EFF0E0416FF0E47
:10E7BC000516FF0E0616000E0716000E076E000E4D
:10E7CC00086E000E096E000E0A6E7F0E0C5E0B506A
:10E7DC00A00F0C5E200E0B6ED8900736083609364B
:10E7EC000A360450015C0550025806500358075075
:10E7FC000458D8A009D00450015E0550025A0650A6
:10E80C00035A0750045A0780D89001360236033653
:10E81C0004360B2EE1D70CAE16D00C50800A9F0F8D
:10E82C00D8B009D0000E016E000E026E000E036E01
:10E83C00000E046E1200D8900A32093208320732E8
:10E84C000C3EF9D715D01F0E0C640FD0000E016EC4
:10E85C00000E026E000E036E000E046E1200D890B5
:10E86C000736083609360A360C060C50D8A4F7D7EA
:10E87C0007C001F008C002F009C003F00AC004F0A0
:10E88C00120003C007F0086A096A0234073601E374
:10E89C00088007500F6E0F50D8A409D0000E016EDF
:10E8AC00000E026E000E036E000E046E120006C007
:10E8BC0007F0086A096A0534073601E30880075037
:10E8CC000E6E0E50D8A409D0000E016E000E026E12
:10E8DC00000E036E000E046E1200028EFF0E011667
:10E8EC00FF0E0216000E0316058EFF0E0416FF0E09
:10E8FC000516000E0616000E0A6E000E0B6E000EAC
:10E90C000C6E000E0D6E7F0E0F5E0E50980F0F5E8C
:10E91C00180E0E6ED8900A360B360C360D36045087
:10E92C00015C0550025806500358D8A007D004507B
:10E93C00015E0550025A0650035A0A80D8900136DF
:10E94C00023603360E2EE6D70FAE16D00F50800AC5
:10E95C00970FD8B009D0000E016E000E026E000E9B
:10E96C00036E000E046E1200D8900D320C320B3276
:10E97C000A320F3EF9D715D0170E0F640FD0000EC8
:10E98C00016E000E026E000E036E000E046E12007D
:10E99C00D8900A360B360C360D360F060F50D8A40D
:10E9AC00F7D70AC001F00BC002F00CC003F00DC089
:10E9BC0004F0120035C039F03A6A3B6A3434393607
:10E9CC0001E33A8039503E6E38C039F03A6A3B6AFE
:10E9DC003734393601E33A8039503D6E3E50D8B465
:10E9EC000BD03D503E5CD8B00ED03E5000083D24BC
:10E9FC00396E180E396407D036C033F037C034F096
:10EA0C0038C035F012003D50D8B40BD03E503D5CB0
:10EA1C00D8B00ED03D5000083E24396E180E396423
:10EA2C0007D033C033F034C034F035C035F01200A9
:10EA3C00060E3C6E35BE3C8E38BE3C8C348EFF0EC2
:10EA4C003316FF0E3416000E3516378EFF0E3616A3
:10EA5C00FF0E3716000E38163D503E5CD8B01BD05A
:10EA6C00D8903636373638363D063E503D18D8B439
:10EA7C000DD03C063CC039F0070E3916D8B406D080
:10EA8C00EFD7D8903532343233323E2A3D503E18CF
:10EA9C00D8B41FD0F6D73E503D5CD8B01AD0D89021
:10EAAC003336343635363E063E503D18D8B40DD08C
:10EABC003C063CC039F0070E3916D8B406D0EFD757
:10EACC00D8903832373236323D2A3D503E18D8A4D1
:10EADC00F7D73CAE0CD0FF0E331AFF0E341AFF0ED4
:10EAEC00351A010E3326000E3422000E35223CACB2
:10EAFC000CD0FF0E361AFF0E371AFF0E381A010E05
:10EB0C003626000E3722000E3822000E3C6E335093
:10EB1C003626345037223550382238AE0ED0FF0E00
:10EB2C00361AFF0E371AFF0E381A010E3626000E53
:10EB3C003722000E3822010E3C6E36C001F037C071
:10EB4C0002F038C003F03EC004F03CC005F0F0EC1D
:10EB5C0070F001C033F002C034F003C035F0120085
:10EB6C002D6E6D0E2D649FD0000E126E030E116E65
:10EB7C00000E0A6E0A0E096E000E046E640E036E11
:10EB8C002DC001F0026A61EC6FF001C007F002C009
:10EB9C0008F017EC70F0090E07240F6E000E082019
:10EBAC00106E1AEC6DF0290E0F24F66EFE0E10206E
:10EBBC00F76E0900F5CF18F00900F5CF19F00A002F
:10EBCC00F5CF1AF0000E0A6E640E096E2DC007F018
:10EBDC00086A17EC70F0120E07240F6E000E082056
:10EBEC00106E000E126E030E116E1AEC6DF0290EE3
:10EBFC000F24F66EFE0E1020F76E0900F5CF15F0FF
:10EC0C000900F5CF16F00A00F5CF17F0AEEC72F054
:10EC1C0015C02AF016C02BF017C02CF0000E126E87
:10EC2C00030E116E000E046E0A0E036E2DC001F061
:10EC3C00026A61EC6FF001C00FF002C010F01AEC28
:10EC4C006DF0290E0F24F66EFE0E1020F76E0900E3
:10EC5C00F5CF18F00900F5CF19F00A00F5CF1AF02E
:10EC6C002AC015F02BC016F02CC017F0AEEC72F0C9
:10EC7C0015C027F016C028F017C029F027C015F0D2
:10EC8C0028C016F029C017F0000E186E000E196E71
:10EC9C003F0E1A6EAEEC72F015C024F016C025F0C3
:10ECAC0017C026F012000A0E2D645DD0000E126EF5
:10ECBC00030E116E000E046E0A0E036E2DC001F0D1
:10ECCC00026A61EC6FF001C00FF002C010F01AEC98
:10ECDC006DF0290E0F24F66EFE0E1020F76E090053
:10ECEC00F5CF18F00900F5CF19F00A00F5CF1AF09E
:10ECFC00000E0A6E0A0E096E2DC007F0086A17EC9A
:10ED0C0070F0090E07240F6E000E0820106E000E16
:10ED1C00126E030E116E1AEC6DF0290E0F24F66EA6
:10ED2C00FE0E1020F76E0900F5CF15F00900F5CF97
:10ED3C0016F00A00F5CF17F0AEEC72F015C02AF001
:10ED4C0016C02BF017C02CF02AC015F02BC016F0F3
:10ED5C002CC017F0000E186E000E196E3F0E1A6EB6
:10ED6C00AEEC72F099D72D50030D290EF324F66EEC
:10ED7C00FE0EF420F76E0900F5CF15F00900F5CF63
:10ED8C0016F00A00F5CF17F0000E186E000E196E73
:10ED9C003F0E1A6EAEEC72F015C024F016C025F0C2
:10EDAC0017C026F0120000EC6EF028EC73F0600E29
:10EDBC0056EC6DF0930EE6EC6CF00B0E026EDC0E66
:10EDCC00016EB7EC6CF0A1EC70F0CD0E186E4C0E21
:10EDDC00196E400E1A6E86C009F087C00AF0F6EC68
:10EDEC006CF009C015F00AC016F00BC017F0AEECB1
:10EDFC0072F015C024F016C025F017C026F0C00E16
:10EE0C00276E7F0E286E440E296E47EC71F024C0DD
:10EE1C0080F025C081F026C082F0C00E276E7F0ED8
:10EE2C00286E440E296ED90E186EA20E196EC20EE3
:10EE3C001A6EA4C009F0A5C00AF0F6EC6CF009C07B
:10EE4C0015F00AC016F00BC017F0AEEC72F015C03E
:10EE5C0024F016C025F017C026F047EC71F024C042
:10EE6C0033F025C034F026C035F0570E366E920EB6
:10EE7C00376E420E386EE0EC74F033C083F034C061
:10EE8C0084F035C085F088C009F089C00AF0F6EC32
:10EE9C006CF009C078F00AC079F00BC07AF0170E4C
:10EEAC000001976F010E0001986F80C099F081C02E
:10EEBC009AF082C09BF083C09CF084C09DF085C00A
:10EECC009EF078C09FF079C0A0F07AC0A1F0970EA8
:10EEDC00016E000E026E0B0E036EDFEC6DF0776EA2
:10EEEC0077500001A26FA36BF2A47ED0F294050EB2
:10EEFC00806E970E096E000E0A6E0D0E0B6EBAEC3C
:10EF0C0071F0785079107A10D8A42BD0000E456E81
:10EF1C00010E466EE30E476EFE0E486E97C049F02A
:10EF2C004A6A98C04BF04C6A99C04DF09AC04EF0AA
:10EF3C009BC04FF09CC050F09DC051F09EC052F051
:10EF4C009FC053F0A0C054F0A1C055F07EC056F045
:10EF5C007FC057F07BC058F07CC059F08CEC7AF035
:10EF6C0033D0000E00019F6F800E0001A06F3F0E8A
:10EF7C000001A16F000E456E010E466E770E476EB6
:10EF8C00FE0E486E97C049F04A6A98C04BF04C6A26
:10EF9C0099C04DF09AC04EF09BC04FF09CC050F001
:10EFAC009DC051F09EC052F09FC053F0A0C054F0D1
:10EFBC00A1C055F07EC056F07FC057F07BC058F012
:10EFCC007CC059F08CEC7AF0000E076E010E086EC6
:10EFDC00000E016E010E026E82EC6DF00150096E96
:10EFEC009FEC6DF0040E806E8A0E096E000E0A6E98
:10EFFC007E0E0B6E000E0C6E99EC6FF00D0AD8A401
:10F00C00E2D6060E806E8A0E016E000E026E0D0E9A
:10F01C00036EDFEC6DF00009D8A404D0000E7C6EFA
:10F02C00010E03D0000E7C6E000E7B6E6CD0000EB9
:10F03C00456E010E466EA60E476EFF0E486E8AC0D8
:10F04C0049F04A6A8BC04BF04C6A8CC04DF08DC0B5
:10F05C004EF08EC04FF08FC050F090C051F091C068
:10F06C0052F07EC053F07FC054F07BC055F07CC092
:10F07C0056F08CEC7AF0000E076E010E086E000E46
:10F08C00016E010E026E82EC6DF00150096E9FEC68
:10F09C006DF041D0000E456E010E466E490E476E66
:10F0AC00FF0E486E8AC049F04A6A8BC04BF04C6A1E
:10F0BC008CC04DF08DC04EF08EC04FF08FC050F014
:10F0CC0090C051F091C052F092C053F093C054F0E4
:10F0DC0094C055F07EC056F07FC057F07BC058F0FE
:10F0EC007CC059F08CEC7AF0000E076E010E086EA5
:10F0FC00000E016E010E026E82EC6DF00150096E75
:10F10C009FEC6DF008D000018B51020AD8B48FD758
:10F11C00010AD8B4BFD7040E806E55D62A6E2AAE1B
:10F12C00FBD02A6C2A50800A120FD8A091D0000E66
:10F13C00126E030E116E000E0A6E0A0E096E000E90
:10F14C00046E640E036E2A50016E026A01BE020642
:10F15C0061EC6FF001C007F002C008F017EC70F022
:10F16C00090E07240F6E000E0820106E1AEC6DF0BD
:10F17C00290E0F24F66EFE0E1020F76E0900F5CF47
:10F18C0018F00900F5CF19F00A00F5CF1AF0000EAF
:10F19C000A6E640E096E2A50076E086A07BE0806CE
:10F1AC0017EC70F0120E07240F6E000E0820106E74
:10F1BC00000E126E030E116E1AEC6DF0290E0F2458
:10F1CC00F66EFE0E1020F76E0900F5CF15F0090053
:10F1DC00F5CF16F00A00F5CF17F0AEEC72F015C0B3
:10F1EC0027F016C028F017C029F027C015F028C04A
:10F1FC0016F029C017F0000E126E030E116E000EE1
:10F20C00046E0A0E036E2A50016E026A01BE0206DB
:10F21C0061EC6FF001C00FF002C010F01AEC6DF051
:10F22C00290E0F24F66EFE0E1020F76E0900F5CF96
:10F23C0018F00900F5CF19F00A00F5CF1AF0AEEC72
:10F24C0072F015C024F016C025F017C026F012007D
:10F25C002A50800A750FD8A04DD0000E0A6E0A0EE7
:10F26C00096E2A50076E086A07BE080617EC70F084
:10F27C00090E07240F6E000E0820106E000E126E81
:10F28C00030E116E1AEC6DF0290E0F24F66EFE0EA5
:10F29C001020F76E0900F5CF15F00900F5CF16F028
:10F2AC000A00F5CF17F0000E126E030E116E000E51
:10F2BC00046E0A0E036E2A50016E026A01BE02062B
:10F2CC0061EC6FF001C00FF002C010F01AEC6DF0A1
:10F2DC00290E0F24F66EFE0E1020F76E0900F5CFE6
:10F2EC0018F00900F5CF19F00A00F5CF1AF0AEECC2
:10F2FC0072F0A7D72A50030D290EF324F66EFE0EDA
:10F30C00F420F76E0900F5CF24F00900F5CF25F0B5
:10F31C000A00F5CF26F012002A50800A120FD8A04E
:10F32C0091D0000E126E030E116E000E0A6E0A0EB4
:10F33C00096E000E046E640E036E2A50016E026A92
:10F34C0001BE020661EC6FF001C007F002C008F0CC
:10F35C0017EC70F0090E07240F6E000E0820106ECB
:10F36C001AEC6DF0500E0F24F66EFE0E1020F76E98
:10F37C000900F5CF18F00900F5CF19F00A00F5CF08
:10F38C001AF0000E0A6E640E096E2A50076E086A97
:10F39C0007BE080617EC70F0120E07240F6E000E55
:10F3AC000820106E000E126E030E116E1AEC6DF02A
:10F3BC00500E0F24F66EFE0E1020F76E0900F5CFDE
:10F3CC0015F00900F5CF16F00A00F5CF17F0AEECEA
:10F3DC0072F015C027F016C028F017C029F027C00E
:10F3EC0015F028C016F029C017F0000E126E030E8F
:10F3FC00116E000E046E0A0E036E2A50016E026A24
:10F40C0001BE020661EC6FF001C00FF002C010F0FB
:10F41C001AEC6DF0500E0F24F66EFE0E1020F76EE7
:10F42C000900F5CF18F00900F5CF19F00A00F5CF57
:10F43C001AF0AEEC72F015C024F016C025F017C00F
:10F44C0026F012002A50800A750FD8A04DD0000E5D
:10F45C000A6E0A0E096E2A50076E086A07BE080665
:10F46C0017EC70F0090E07240F6E000E0820106EBA
:10F47C00000E126E030E116E1AEC6DF0500E0F246E
:10F48C00F66EFE0E1020F76E0900F5CF15F0090090
:10F49C00F5CF16F00A00F5CF17F0000E126E030E22
:10F4AC00116E000E046E0A0E036E2A50016E026A73
:10F4BC0001BE020661EC6FF001C00FF002C010F04B
:10F4CC001AEC6DF0500E0F24F66EFE0E1020F76E37
:10F4DC000900F5CF18F00900F5CF19F00A00F5CFA7
:10F4EC001AF0AEEC72F0A7D72A50030D500EF3248D
:10F4FC00F66EFE0EF420F76E0900F5CF24F009002D
:10F50C00F5CF25F00A00F5CF26F01200490E636EF8
:10F51C00000E646EDCD3250E7618D8B409D045C025
:10F52C00D9FF46C0DAFF76C0DFFF454A462ACFD363
:10F53C00000E666E000E656E47C0F6FF48C0F7FF02
:10F54C000800F5502E0AD8A42ED0668C474A482ABB
:10F55C00000E726E000E716E1BD071C00FF072C077
:10F56C0010F0000E126E0A0E116E1AEC6DF047C000
:10F57C00F6FF48C0F7FF0800F5500F26000E1022CA
:10F58C00D00E0F24716EFF0E1020726E474A482A5F
:10F59C0047C0F6FF48C0F7FF0800F550D7EC6CF0F9
:10F5AC00D8A00CD0DAD7000E726E000E716E668881
:10F5BC0005D0668417D0C00E651214D047C0F6FF74
:10F5CC0048C0F7FF474A482A0800F5CF76F0765036
:10F5DC00000AD8B488D3660AD8B4EBD7130AD8B4C7
:10F5EC00EAD775D3070E6614D8B4BBD266A804D07C
:10F5FC00000E726E060E716E63C0D9FF64C0DAFF26
:10F60C00DECF73F0DECF74F0DDCF75F0030E632622
:10F61C00000E642275AE10D073C001F074C002F0FD
:10F62C0075C003F008EC6DF001C073F002C074F00B
:10F63C0003C075F0030E6512000E6C6E000E6B6E3F
:10F64C00735074107510D8B483D0820E5A6EFF0E9E
:10F65C005B6E73C05CF074C05DF075C05EF076C01C
:10F66C005FF0100E05D0D8905F325E325D325C32A6
:10F67C00E82EF9D75C505A246B6E000E5B206C6E32
:10F68C006B06D8A06C066BC00FF06CC010F0000EAF
:10F69C00126E030E116E1AEC6DF00FC06BF010C0F1
:10F6AC006CF06BC007F06CC008F0000E0A6E0A0E0E
:10F6BC00096E17EC70F007C06BF008C06CF06CAE04
:10F6CC0003D06B06D8A06C066B50000894EC78F055
:10F6DC0024C06DF025C06EF026C06FF06DC015F023
:10F6EC006EC016F06FC017F073C018F074C019F02C
:10F6FC0075C01AF0AEEC72F015C06DF016C06EF05D
:10F70C0017C06FF06DC001F06EC002F06FC003F057
:10F71C00000E046E800E056E3F0E066E59EC70F0F6
:10F72C00D8B004D06B06D8A06C0612D06DC001F016
:10F73C006EC002F06FC003F0000E046E200E056E5A
:10F74C00410E066E59EC70F0D8A002D06B4A6C2AB0
:10F75C0072BE06D072501BE10D0E715CD8B017D082
:10F76C0073C033F074C034F075C035F07150B6EC22
:10F77C0075F024C036F025C037F026C038F0E0EC28
:10F78C0074F033C073F034C074F035C075F06CBED7
:10F79C0006D06C501EE10A0E6B5CD8B01AD07350B8
:10F7AC0074107510D8B451D073C02BF074C02CF0F9
:10F7BC0075C02DF034EC72F02B502C102D102E1037
:10F7CC00D8B46CBE42D06C5004E1020E6B5CD8A075
:10F7DC003CD06DC001F06EC002F06FC003F0700E33
:10F7EC00046E890E056E400E066E59EC70F0D8B0A2
:10F7FC0002D0F70E01D0F80E6B26FF0E6C226B5068
:10F80C0094EC78F024C06DF025C06EF026C06FF03B
:10F81C0073C001F074C002F075C003F06DC004F049
:10F82C006EC005F06FC006F047EC74F001C067F0D5
:10F83C0002C068F003C069F004C06AF0000E736E79
:10F84C00000E746E000E756E32D073C02BF074C047
:10F85C002CF075C02DF034EC72F02BC067F02CC07E
:10F86C0068F02DC069F02EC06AF073C03FF074C010
:10F87C0040F075C041F067C009F068C00AF069C07B
:10F88C000BF06AC00CF0A1EC6EF009C042F00AC09B
:10F89C0043F00BC044F0BFEC6DF03FC073F040C0C0
:10F8AC0074F041C075F0000E6C6E000E6B6E010EA4
:10F8BC00766E0A0E7618D8B418D07650040D010E58
:10F8CC00F324F66EFE0EF420F76E0900F550675C1B
:10F8DC000900F55068580900F55069580900F550B1
:10F8EC006A58D8A002D0762AE4D7030E65145A6E53
:10F8FC00000E66145B6E5A505B10D8B451D045C0E4
:10F90C00D9FF46C0DAFF2D0E49D0454A462A48D0C9
:10F91C0067C001F068C002F069C003F06AC004F06F
:10F92C007650040D010EF324F66EFE0EF420F76EE5
:10F93C000900F5CF05F00900F5CF06F00900F5CF69
:10F94C0007F00A00F5CF08F0D6EC6FF001C06DF0AF
:10F95C0002C06EF003C06FF004C070F06DC00EF00A
:10F96C006EC00FF06FC010F070C011F00A0E126E66
:10F97C00000E136E000E146E000E156E2EEC6FF052
:10F98C000EC06DF00FC06EF010C06FF011C070F0B3
:10F99C006D50300F45C0D9FF46C0DAFFDF6EB5D7CA
:10F9AC0076067628D8B40CD0B3D745C0D9FF46C05C
:10F9BC00DAFF300EDF6E454A462A6B06D8A06C067D
:10F9CC006CBE05D06C50F1E16B04D8B0EED772BEB2
:10F9DC0009D0725004E1090E715CD8A003D0080E56
:10F9EC00766E02D071C076F07650715E000E76BEE7
:10F9FC00FF0E725A7650D8B408D045C0D9FF46C015
:10FA0C00DAFF2E0EDF6E454A462A765094EC78F0DB
:10FA1C0024C060F025C061F026C062F073C018F0FD
:10FA2C0074C019F075C01AF060C015F061C016F002
:10FA3C0062C017F0AEEC72F015C02BF016C02CF0B3
:10FA4C0017C02DF034EC72F02BC067F02CC068F0AE
:10FA5C002DC069F02EC06AF06FD067C001F068C08D
:10FA6C0002F069C003F06AC004F07650040D010E78
:10FA7C00F324F66EFE0EF420F76E0900F5CF05F0B8
:10FA8C000900F5CF06F00900F5CF07F00A00F5CF15
:10FA9C0008F0D6EC6FF001C06DF002C06EF003C040
:10FAAC006FF004C070F06DC00EF06EC00FF06FC040
:10FABC0010F070C011F00A0E126E000E136E000ED4
:10FACC00146E000E156E2EEC6FF00EC06DF00FC0A4
:10FADC006EF010C06FF011C070F06D50300F45C05B
:10FAEC00D9FF46C0DAFFDF6E454A462A67C00EF0E2
:10FAFC0068C00FF069C010F06AC011F07650040DA8
:10FB0C00010EF324F66EFE0EF420F76E0900F5CF0D
:10FB1C0012F00900F5CF13F00900F5CF14F00A002C
:10FB2C00F5CF15F02EEC6FF00EC067F00FC068F03B
:10FB3C0010C069F011C06AF076067628D8B40CD0E3
:10FB4C008CD745C0D9FF46C0DAFF300EDF6E454A70
:10FB5C00462A7106D8A0720671507210D8B4B7D06C
:10FB6C00F0D763C0D9FF64C0DAFFDECF5AF0DDCF27
:10FB7C005BF05AC067F05BC068F0696A6A6A020E93
:10FB8C006326000E642271507210D8A408D06750FE
:10FB9C00681069106A10D8A402D0714A722A010E3A
:10FBAC00766E0A0E7618D8B418D07650040D010E65
:10FBBC00F324F66EFE0EF420F76E0900F550675C28
:10FBCC000900F55068580900F55069580900F550BE
:10FBDC006A58D8A002D0762AE4D7800E76BE7F0E63
:10FBEC005A6E7150765C7250800A5A58D8B003D055
:10FBFC0071C076F010D07250800A5A6E7650715CDB
:10FC0C00800E76BE7F0E5A58D8B005D07650716EE5
:10FC1C00726A71BE7206030E65145A6E000E66147B
:10FC2C005B6E5A505B10D8B44AD045C0D9FF46C061
:10FC3C00DAFF2D0EDF6E41D071C05AF072C05BF04E
:10FC4C00D8905A365B36D8905A365B36010E5A2409
:10FC5C00F66EFE0E5B20F76E0900F5CF05F009007D
:10FC6C00F5CF06F00900F5CF07F00A00F5CF08F044
:10FC7C0067C001F068C002F069C003F06AC004F00C
:10FC8C00D6EC6FF001C00EF002C00FF003C010F004
:10FC9C0004C011F00A0E126E000E136E000E146EDC
:10FCAC00000E156E2EEC6FF00E50300F766E45C0B8
:10FCBC00D9FF46C0DAFF76C0DFFF454A462A7106F7
:10FCCC00D8A072067128B8E17228D8A4B5D747C05D
:10FCDC00F6FF48C0F7FF474A482A0800F5CF76F0F0
:10FCEC007650D8A418D445C0D9FF46C0DAFF000E10
:10FCFC00DF6E12000000070E091C1B1215383F3670
:10FD0C003124232A2D70777E796C6B6265484F46BF
:10FD1C004154535A5DE0E7EEE9FCFBF2F5D8DFD62F
:10FD2C00D1C4C3CACD90979E998C8B8285A8AFA65F
:10FD3C00A1B4B3BABDC7C1C9CEDBDCD5D2FFF8F1D3
:10FD4C00F6E3E4EDEAB7B0B9BEABACA5A28F8881FF
:10FD5C008693949D9A2720292E3B3C35321F1811EF
:10FD6C001603040D0A5750595E4B4C45426F68619F
:10FD7C006673747D7A898E878095939B9CB1B6BF90
:10FD8C00B8ADAAA3A4F9FEF7F0E5E3EBECC1C6CF3E
:10FD9C00C8DDDAD3D4696E676075737B7C51565FAE
:10FDAC00584D4A4344191E171005030B0C21262FDE
:10FDBC00283D3A33344E49404752555C5B76717856
:10FDCC007F6A6D64623E39303722252C2B06010880
:10FDDC000F1A1D1412AEA9A0A7B2B5BCBB96919870
:10FDEC009F8A8D8482DED9D0D7C2C5CCCBE6E1E820
:10FDFC00EFFAFDF4F2010000000A000000640000BC
:10FE0C0000E803000010270000A086010040420F0C
:10FE1C00008096980000E1F50500CA9A3B00803FEF
:10FE2C00CDCC3DD7233C12833AB7D138C6273738CF
:10FE3C008635C0D633CC2B32708930E7DB2EE53CCF
:10FE4C001E42A20D00803F00204100C842007A44AF
:10FE5C00401C4650C34724744997184BBCBE4C6B8E
:10FE6C006E4E03155079AD60F3497147726F757022
:10FE7C002049443D2575204E6F64652049443D253D
:10FE8C007520566F6C746167655F6C696768743D4B
:10FE9C00252E326620562054656D7065726174751E
:10FEAC0072653D252E32662043204D6F74696F6E4E
:10FEBC0020646574656374656421252E3266205256
:10FECC00535349203D25752043524352696768744A
:10FEDC003D2575200D0A0047726F75702049443D11
:10FEEC002575204E6F64652049443D257520566F5D
:10FEFC006C746167655F6C696768743D252E32664A
:10FF0C0020562054656D70657261747572653D255F
:10FF1C002E32662043205761746368696E677E7E5B
:10FF2C00252E32662052535349203D2575204352CD
:10FF3C004352696768743D2575200D0A0047726F3E
:10FF4C0075702049443D2575204E6F6465204944E9
:10FF5C003D2575204D6F6973747572653D252E3284
:10FF6C00662054656D70657261747572653D252EE1
:10FF7C0032662043204C696768743D252E3266201A
:10FF8C00562052535349203D257520435243526904
:10FF9C006768743D2575200D0A0047726F757020D7
:10FFAC0049443D2575204E6F64652049443D2575B7
:10FFBC0020566F6C746167655F6C696768743D256A
:10FFCC002E3266205620566F6C746167655F7465BF
:10FFDC006D703D252E326620562052535349203DDC
:10FFEC0025752043524352696768743D2575200D71
:04FFFC000A000000F7
:020000040020DA
:08000000FFFFFFFFFFFFFFFF00
:020000040030CA
:0E000000FF021F1EFF8381FF0FC00FE00F40A5
:00000001FF
